:100000000200EB0200C831323334350200DF3132F6
:1000100033343532313233343536373231323334AA
:10002000353637109810C299302908852E99C22983
:10003000D22A32C22A32203B5AC0D0F51D303413A6
:10004000E599B4F029C234F52DD22CE51DD0D0208D
:100050002B6432E59930E720B4F8005011C237B56F
:100060001E16D237F52DE51DD0D0202B4932F52DA7
:10007000E51DD0D0202B3F3220370CF52DD22CE5BA
:100080001DD0D0202B3032F51FF52DE51DD0D0200E
:100090002B2432C0E0E599B4F803D0E032891DC0CA
:1000A0002C752C77852CA0A952F30552D02C852CC9
:1000B000A0A91DD0E03220400E302A06852D2ED278
:1000C0002932852D99D22A32FF75A080202808E296
:1000D000F0A3EF852CA032E0F2A3EF852CA03275BF
:1000E0008C00758A00D53F02C2A93275D000758197
:1000F00057C2AF759900758922758850758C007547
:100100008A00758DFF758BFF75987075B80175A89D
:10011000107801E4F608D9FEB880F990800474FFE5
:10012000F520F090800CF01202F31202F3120DFF92
:10013000300F06301603020324752C0075A000E46E
:10014000791EF3791DF3791FF3751EFF751FFF7577
:100150002F027530E8D22ED2AF126067C2D5125886
:1001600021503412587B502F90610B120C90300CA0
:100170005E30155B7A50125D5D12130A12130ADAB3
:10018000F57A50125D9412130A12130ADAF580E41C
:10019000C2D5125821403890665F302F0620164392
:1001A00090677F120C9012130A12130A90610B12BF
:1001B0000C90120DFFE521547FF5F0E522546045C7
:1001C000F060EF200E11C2D5125821400A80C8D22B
:1001D0000A12130A12130A0201E3120DFF302D0353
:1001E0000202CAC2D5300B18E520B4EF05202E025A
:1001F000800E7520EFD2D59033D985832F8582303C
:10020000300C0B7520F7D2D5752F4B75309B301500
:1002100018E520B4FB05202E02800E7520FBD2D5F8
:100220009050C485832F858230300E18E520B4BFEE
:1002300005202E02800E7520BFD2D59013558583E0
:100240002F85823030160B75207FD2D5752F5975CA
:10025000309B300915E520B4FE05202E02800B7579
:1002600020FED2D5752F217530A6300A15E520B4B1
:10027000DF05202E02800B7520DFD2D5752F147577
:10028000308D300D15E520B4FD05202E02800B7554
:1002900020FDD2D5752F4E7530D030081AC2D5E565
:1002A00020B4FF05202E02800E7520FF90800CE404
:1002B000F0752F187530DF908004E520F030D50AF6
:1002C000740190800CF0C234C2401214311202EB5F
:1002D00012133A12133A12133A12143112133A1239
:1002E000133A12133A0201DAD22E22852F83853077
:1002F00082E4739080007438F012133A12133A12A9
:10030000133A7438F012133A12133A12133A74066D
:10031000F0121334740EF01213347401F012133A05
:1003200012133A2274FF908004F090800CF0900534
:10033000DB120C90900000E0F97455F0121324F2D7
:10034000B4551B74AAF0121324E0B4AA11E9F0A367
:10035000E583B480E29005FB1205920203679006E4
:100360000B1205921205D490061B12059290000004
:1003700078FE7901E49328F8500109A3E582B4FEE0
:10038000F3E583B47FEEE493B5010F740193B500F8
:100390000990063B1205920203A390062B120592C8
:1003A0001205D490064B1205927F0A7E009006DB60
:1003B000EE93908004F00EEE9006DB9390800CF0AC
:1003C0000E120585DFE7C298C29990065B1205926E
:1003D00020981F759900120585C2987599551205C8
:1003E0008530980EE599B4550990067B1205920266
:1003F00003FB90066B1205921205D490068B120532
:1004000092D2AF126067125DCB54587044125D5D9A
:10041000545C703D125D9454587036D2B57F007EA6
:1004200001901500125C11E5417026745512057794
:100430007F007E01901100125C8DE54170137F00FA
:100440007E01900D00125C11E54170051205AC5063
:100450000302051174AA1205777F007E0190110036
:10046000125C8DE54170EA7F007E01900D00125C08
:1004700011E54170DC1205AC40D77F007E0190157C
:1004800000125C8DE54170C97428125D33545C70B4
:10049000C0752C8075A080D2D3C228788B907F2025
:1004A000790874CCF37988D2A8121324125F6BC236
:1004B000A8C2D3E541705A907F20E0B42853C2B55A
:1004C000744F125D33545C70487F4F7E0590150069
:1004D000125C11E541703A7F4F7E05901100125C6D
:1004E0008DE541702C7F4F7E05900D00125C11C28E
:1004F000AFE541701C1205AC40177F4F7E0590158B
:1005000000125C8DE54170099006AB120592020560
:100510001D90069B1205921260671205D49006BBCF
:10052000120C9012133A12133A12133A120DFF30B2
:1005300024063027030200EBE52179007A08C31373
:10054000401109DAF9E522C47A04C313400509DA37
:10055000F980D09006EFE975F007A42582F582E5D1
:10056000F03583F583752C0075A000783D7A07126D
:1005700007BC120B5380AC7B047A00901100F0A3EF
:10058000DAFCDBFA227A047B007C00DCFEDBFCDA9E
:10059000FA22752C0075A00078387A101207BC1268
:1005A0000B5312058512058512058522752C0D75D4
:1005B000A00D78007B047A00901100E0F5F0E2B520
:1005C000F010A308B80004052C05A0DAEEDBECC39C
:1005D0008001D322120DFF300FFA22444941474EC9
:1005E0004F5354494353205445535454455354494D
:1005F0004E472052414D2E2E2E202052414D205448
:10060000455354205041535345442052414D2054AA
:10061000455354204641494C454420544553544980
:100620004E47204550524F4D2E2E2E4552524F527E
:1006300020494E204550524F4D202020202045502B
:10064000524F4D204F4B20202020202020204C4571
:1006500044205445535420202020204D4944492013
:10066000494E2F4F55542054455354204D49444929
:1006700020492F4F204552524F5220204D49444986
:1006800020494E2F4F5554204F4B204449534B2067
:1006900044524956452054455354204449534B2015
:1006A0004452495645204552524F52204449534BDB
:1006B000204452495645204F4B202020202053579C
:1006C00049544348205445535420202020202020C2
:1006D0002020202020202020202020F7FFFF00FEC7
:1006E000FFFDFFFBFF7FFFBFFFDFFFEFFFFFFF52BD
:1006F0004543454956452053454E44202020494E08
:10070000464F202052455155455354204E414D45AA
:10071000202044454C45544520204D494449202043
:10072000444F2F594553202020555020202042412E
:10073000434B555020464F524D41542020444F5773
:100740004E2020752C0075A00079689005007B6410
:1007500075F0007A08C3E0A37004E07001D3E5F0FF
:1007600033F5F0A3DAEFF309DBE6752C0075A00092
:1007700079687A64E3700409DAFA19E979CCF3222A
:10078000E53375F013A490010025822AF58250020A
:100790000583E58325F0F58322E0F2A308B8000481
:1007A000052C05A0DAF322E0F2E58270021583152C
:1007B0008218B8FF04152C15A0DAEC22E493F2A3FA
:1007C00008B80004052C05A0DAF222E2F5F0E49363
:1007D000B5F00708A3DAF4D38001C3227E107B00B2
:1007E0007A00F9C3ED33FDEC33FCEB33FBEA33FA6B
:1007F0007006EBB509004008EBC399FB50011A0DD8
:10080000DEE1EB227A00AB0CAC0D7D007E087805B2
:10081000C3ED33FDEC33FCEB33FBEA33FA7006EB4C
:10082000B508004008EBC398FB50011A0D302C03AB
:100830001217D6DE02800280D7EB22C2D57549009E
:10084000AB0CAC0D7D007E087805C3ED33FDEC33B9
:10085000FCEB33FBE54933F5497006EBB508004086
:1008600009EBC398FB500215490DC2D5102C0302A9
:1008700008F1E52D30E705B4F8005075AA40BA80BC
:10088000030208C10540BA0106B47E630208C1BA7A
:100890000310B40105D2350208C1B40252C23502B8
:1008A00008C1203516BA7E19B4F744D54405D5439E
:1008B00002D233D2347540000208C1BA1503B4F72E
:1008C0002E85102C8510A0A911F30511B9FF220562
:1008D00010E510B41102800BB415028006B4191192
:1008E00075100DD230053BE53B7006053A8002D20B
:1008F000D520D507DE02800302084AEB227A00AB3E
:100900000CAC0D7D007E087805C3ED33FDEC33FCA7
:10091000EB33FBEA33FA7006EBB508004008EBC393
:1009200098FB50011A0D20290620A903121846DE53
:1009300002800280D4EB22C2D5754900AB0CAC0D0D
:100940007D007E087805C3ED33FDEC33FCEB33FB13
:10095000E54933F5497006EBB508004009EBC3984B
:10096000FB500215490D20297D20A97AE515700854
:10097000E5167004E517606E1515E515B4FF111541
:1009800016E516B4FF0A1517E517B4FF030209E6CA
:1009900085102C8510A0A911E3F52ED229202A025A
:1009A000D29905400511B9FF0A0510E510B41903E5
:1009B00075100DE52EB4F0067540000209E6B4F797
:1009C00025753F4EE589C2E0D2E1F589E540B414D2
:1009D0000B753F20E589D2E0C2E1F589758CFF7582
:1009E0008AFFD28CD2A9DE028003020946EB22F8EC
:1009F0008FF0A4FFE5F0CE88F0A42EFEE435F022BF
:100A0000C0E0C0F0C000C001C002ED8FF0A4FAA9A0
:100A1000F0ED8EF0A429F9A8F0500108EC8FF0A4B5
:100A200029F9E835F0F8EC8EF0A4ACF028FD50017F
:100A30000CAE01AF02D002D001D000D0F0D0E02245
:100A4000754900754A00754B00754C00754D007571
:100A50004E008C4F8D50AC06AD077E007F0075F0C8
:100A600030C3EF33FFEE33FEED33FDEC33FCE550E6
:100A700033F550E54F33F54FE54E33F54EE54D3345
:100A8000F54DE54C33F54CE54B33F54BE54A33F585
:100A90004AE54933F549701AE54A7016E54BB50049
:100AA0000FE54CB5010AE54DB50205E54EB503006D
:100AB0004022C3E54E9BF54EE54D9AF54DE54C9928
:100AC000F54CE54B98F54BE54A9400F54AE5499419
:100AD00000F5490FD5F08A227800C0E0C0F0EF8E13
:100AE000F0D006D007C3C0E0E5F0B50607D0E0B50A
:100AF00007048004D0E0400B9FC0E0E5F09EF5F0D5
:100B00000880E7AEF0FFE822C008C009780079004D
:100B1000C0E0C0F0EF8EF0D00ED00FC3C0E0ED60AB
:100B200004D0E08010E5F0B50E07D0E0B50F0480EA
:100B300004D0E040139FC0E0E5F09EF5F0ED940096
:100B4000FD08B800DA0980D7AEF0FFE889F0D009D7
:100B5000D008227828752C0075A0007480120C75BE
:100B6000120B6874C0120C757A10908001E2F012BA
:100B7000132E08DAF822A9117828752C0075A00028
:100B80007480120C75120B8D74C0120C757A109053
:100B90008001E2F0302C11302C031217D6121319F9
:100BA000752C0075A000800312132E08DA02800253
:100BB00080E0227828752C0075A0007480120C75D6
:100BC000120BC874C0120C757A10908001E2F020EC
:100BD0002C03020C69C2D5102C03020C5CE52D30ED
:100BE000E705B4F8005075AA40BA8003020C2C0542
:100BF00040BA0106B47E63020C2CBA0310B401059E
:100C0000D235020C2CB40252C235020C2C203516FF
:100C1000BA7E19B4F744D54405D54302D233D23451
:100C2000754000020C2CBA1503B4F72E85102C85E4
:100C300010A0A911F30511B9FF220510E510B41198
:100C400002800BB415028006B4191175100DD23054
:100C5000053BE53B7006053A8002D2D520D51580CC
:100C600000752C0075A000800312132E08DA028094
:100C700003020BCD22908000F012132E227A007511
:100C80002C0075A0007828EA93F2080ABA20F8220E
:100C9000120C7D020B532430908001F012132E228F
:100CA000752C0075A00078287A207420F208DAFCF0
:100CB00022752C0075A000782828F8E5F07A00B499
:100CC0006400400594640A80F6F5F0EA600424307C
:100CD000F208E5F07A00B40A004005940A0A80F6AA
:100CE000F5F074302AF208743025F0F2020B5375D7
:100CF0002C0075A000782828F8E5F07A00B464008C
:100D0000400594640A80F6F5F0EA2430F208E5F034
:100D10007A00B40A004005940A0A80F6F5F07430AF
:100D20002AF208743025F0F222752C0075A00078A4
:100D30002828F87A00BC0003BD6400400CC3ED9481
:100D400064FDEC9400FC0A80ECEA2430F2087A009E
:100D5000BD0A004007ED940AFD0A80F48DF074305E
:100D60002AF208743025F0F222752C0075A0007864
:100D7000287900BC0106BD8603BEA000400FEE949A
:100D8000A0FEED9486FDEC9401FC0980E6E9243098
:100D9000F2087900BC0006BD2703BE1000400FEE2C
:100DA0009410FEED9427FDEC9400FC0980E6E92404
:100DB00030F2087900BD0303BEE800400BEE94E872
:100DC000FEED9403FD0980EDE92430F2087900BDC1
:100DD0000003BE6400400BEE9464FEED9400FD0938
:100DE00080EDE92430F2087900BE0A004007EE9455
:100DF0000AFE0980F4E92430F208EE2430F222746D
:100E0000FFF59012131274F7F590121312E5905437
:100E1000F0FA74FBF590121312E59054F0C44AF402
:100E2000F52374FDF590121312E590F453240F424C
:100E300024E523F5F0652A85F02AC5F055F0F52163
:100E4000E524F5F0652B85F02BC5F055F054F0F551
:100E50002220140330170375292820271230241B61
:100E60001529E529B4FF14D21475290F020E7B153C
:100E700029E529B4FF05D21775290F2274FFF590D3
:100E8000121312302C031217D674F7F590121312A6
:100E9000E59054F0FA74FBF590121312302C031203
:100EA00017D6E59054F0C44AF4F52374FDF590127A
:100EB0001312302C031217D6E590F453240F42245A
:100EC000E523F5F0652A85F02AC5F055F0F521E512
:100ED00024F5F0652B85F02BC5F055F054F0F52284
:100EE0002274FFF59012131220290620A90312186C
:100EF0004674F7F590121312E59054F0FA74FBF56E
:100F00009012131220290620A903121846E59054C6
:100F1000F0C44AF4F52374FDF5901213122029064B
:100F200020A903121846E590F453240F4224E52328
:100F3000F5F0652A85F02AC5F055F0F521E524F590
:100F4000F0652B85F02BC5F055F054F0F522227496
:100F5000FFF590121312C2D5102C03020FDDE52D00
:100F600030E705B4F8005075AA40BA8003020FAD0F
:100F70000540BA0106B47E63020FADBA0310B40196
:100F800005D235020FADB40252C235020FAD203585
:100F900016BA7E19B4F744D54405D54302D233D2EC
:100FA00034754000020FADBA1503B4F72E85102C2E
:100FB0008510A0A911F30511B9FF220510E510B4A1
:100FC0001102800BB415028006B4191175100DD2F0
:100FD00030053BE53B7006053A8002D2D574F7F543
:100FE00090121312E59054F0FB74FBF5901213125B
:100FF000C2D5102C03021077E52D30E705B4F800B8
:101000005075AA40BA80030210470540BA0106B4E1
:101010007E63021047BA0310B40105D235021047AF
:10102000B40252C235021047203516BA7E19B4F701
:1010300044D54405D54302D233D234754000021062
:1010400047BA1503B4F72E85102C8510A0A911F30B
:101050000511B9FF220510E510B41102800BB4157B
:10106000028006B4191175100DD230053BE53B70B6
:1010700006053A8002D2D5E59054F0C44BF4F5232E
:1010800074FDF590121312C2D5102C0302110EE557
:101090002D30E705B4F8005075AA40BA800302105D
:1010A000DE0540BA0106B47E630210DEBA0310B456
:1010B0000105D2350210DEB40252C2350210DE2024
:1010C0003516BA7E19B4F744D54405D54302D23358
:1010D000D2347540000210DEBA1503B4F72E851025
:1010E0002C8510A0A911F30511B9FF220510E510F8
:1010F000B41102800BB415028006B4191175100DDD
:10110000D230053BE53B7006053A8002D2D5E5902A
:10111000F453240F4224E523F5F0652A85F02AC50F
:10112000F055F0F521E524F5F0652B85F02BC5F0A1
:1011300055F054F0F5222274FFF590121312202975
:101140007D20A97AE5157008E5167004E517606E34
:101150001515E515B4FF111516E516B4FF0A151798
:10116000E517B4FF030211BE85102C8510A0A9114C
:10117000E3F52ED229202A02D29905400511B9FFA4
:101180000A0510E510B4190375100DE52EB4F0062C
:101190007540000211BEB4F725753F4EE589C2E0E7
:1011A000D2E1F589E540B4140B753F20E589D2E022
:1011B000C2E1F589758CFF758AFFD28CD2A974F7CC
:1011C000F590121312E59054F0FA74FBF590121397
:1011D0001220297D20A97AE5157008E5167004E52E
:1011E00017606E1515E515B4FF111516E516B4FF59
:1011F0000A1517E517B4FF0302125185102C85104C
:10120000A0A911E3F52ED229202A02D29905400582
:1012100011B9FF0A0510E510B4190375100DE52E7C
:10122000B4F006754000021251B4F725753F4EE543
:1012300089C2E0D2E1F589E540B4140B753F20E5A1
:1012400089D2E0C2E1F589758CFF758AFFD28CD214
:10125000A9E59054F0C44AF4F52374FDF5901213F7
:101260001220297D20A97AE5157008E5167004E59D
:1012700017606E1515E515B4FF111516E516B4FFC8
:101280000A1517E517B4FF030212E185102C85102B
:10129000A0A911E3F52ED229202A02D299054005F2
:1012A00011B9FF0A0510E510B4190375100DE52EEC
:1012B000B4F0067540000212E1B4F725753F4EE523
:1012C00089C2E0D2E1F589E540B4140B753F20E511
:1012D00089D2E0C2E1F589758CFF758AFFD28CD284
:1012E000A9E590F453240F4224E523F5F0652A85FF
:1012F000F02AC5F055F0F521E524F5F0652B85F0D1
:101300002BC5F055F054F0F522227F28121344DF4C
:10131000FB22000000000000221213121213120020
:10132000000000221213121213121213122274124E
:10133000D5E0FD22741CD5E0FD2275F02712132E96
:10134000D5F0FA227D0912133ADDFB75F00612136F
:101350002ED5F0FA22754000906557120C7D202B97
:1013600010752C0075A000783E90657B7A031207FB
:10137000BC120B5374C6120C75C22E752F13753028
:1013800084021430300E27E540B2E0F54070129030
:101390006557120C7D906577202B2990657B021391
:1013A000C490657F120C7D90001DE00213F0E540B3
:1013B0007027301407D22B9065778008301771C2E0
:1013C0002B90657B752C0075A000783E7A03120780
:1013D000BC120B5374C6020C7530140A90001DE049
:1013E00004B4110C804A30174790001DE06041148E
:1013F000F0701E752C0075A00078447A0390657B10
:101400001207BC120B5374CC120C75751EFF02141C
:1014100030F5F01444C0F51EE5F0B40106742090D8
:101420000046F0741C120CB1120B5374CC120C75E4
:1014300022E51F20E736751FFFB47F09754001754F
:101440003E35021454B5340280025020754000F538
:1014500033753E017520FE908004E520F074019004
:10146000800CF0752F217530A60222202220464FD5
:101470005220414C4C20594F5520444F2044495351
:101480004B20425547275320464F522055C22EC26B
:10149000D51258214003021542900002E0F5F09069
:1014A0006537120C7DE4120CB1900000E0FCA3E063
:1014B000FD7410120D297E037F20900001E0F5F0ED
:1014C000C3EF95F0FF1582E0F5F0EE95F0FE746441
:1014D0001209EFF50D8E0E8F0F75F0037420D2D325
:1014E000120B08F5F0740BC2D3120CEF120B5375EC
:1014F0004000752F147530FB0215DF300A4AC2D543
:10150000D23D125823503BE540B4020274FF04F56B
:1015100040B4022990612B120C90752F1575302361
:101520000215DF30241530271290146D120C901222
:10153000130A12130A90612B120C9080BE700C02D9
:101540001499752F027530E80215DF900002E070E3
:101550000990671F120C900215DF120CA0752F1551
:101560007530658021300A02809430140DE533B562
:1015700034030215DF05330215863017BEE53370DC
:10158000030215DF1533124D47752C0075A0007846
:10159000317A06203C0512079980031207BC7A0BAA
:1015A000120780E0124E0F7A00120780752C00752A
:1015B000A000783F7A081207997A0E120780E0FCA3
:1015C000A3E0FDA3E0FE120D697A0D120780E03062
:1015D000E004746D8002742090002EF0120B5330E2
:1015E0001A0630140302160C22125D1A752C80752F
:1015F000A080D2B57F007E02900100125C117E03B4
:10160000125C117E04125C11125D2722C214752F28
:1016100016753020754B14754C00901657020C90BF
:10162000154BE54B7030754B14054CE54CB4B500CB
:10163000501E7583162465F58250020583752C00B3
:1016400075A00078477910E993F218D9FA020B5384
:10165000752F1475308D2244657369676E6564203B
:101660006279202E2E2E20202020202020202020B5
:101670002020202020204661737420466F727761FD
:1016800072642044657369676E73202D2D20536F3B
:10169000667477617265206279204361726F6C2095
:1016A0004E616B61686172612C2048617264776180
:1016B0007265204C61796F7574206279204A6F736E
:1016C0006520224368696C69746F73222056616CCF
:1016D000656E7A75656C612E20537973457820525A
:1016E00065736561726368206279204772616E7408
:1016F000204B726175732E202050726F6A6563747F
:1017000020456E67696E6565723A2044617669644A
:1017100020446F75676C6173732E20202020202079
:1017200020202020202020202020202020202020B9
:1017300020202020202012179D5061B53102800505
:10174000F5317532FFB4050EE532B4090274FF04B9
:10175000F532243080445023B4040AE532B4050C39
:1017600074FF02176CE532B4040274FF04F532E52D
:101770003175F005A425322441801FB4070EE535EC
:10178000B407037535FF05357420800EE532B40EBD
:101790000274FF04F53274212532F0D322C33008DD
:1017A000047400802F30090474018028300D047403
:1017B0000280213015047403801A300B04740480F5
:1017C00013300A047405800C300E04740680053052
:1017D00016037407D322C22CC2D5E52D30E715B409
:1017E000F8005058B4F002800B74F7D233D2D5759C
:1017F00040FFD23485102C8510A0A911F3051105E6
:1018000040B9FF380510E5108556F0B41104D2F048
:10181000801DB41504D2F18016B41904D2F2800FE1
:10182000B41D04D2F38008B42112D2F475100DD285
:101830003085F056053BE53B7002053A30D506850C
:10184000104F85115022E515700BE5167007E5174E
:1018500070030218DE1515E515B4FF111516E5160F
:10186000B4FF0A1517E517B4FF030218DE85102C24
:101870008510A0A911E3F52ED229202A02D29905BC
:1018800011B9FF0A0510E510B4190375100DE52E06
:1018900030E74BB4F0030218DEB4F712303B1AE520
:1018A000157016E5167012E517700E02326CD083B3
:1018B000D082D083D08202248D303B15D51C1F8569
:1018C0001B1C752C0075A000790CE3B44203122F89
:1018D0009585543F758C00758A00D28CD2A922C29E
:1018E0003F752F19753026D2D512582150649000BB
:1018F00002E0B4350302193D900000E07004A3E05B
:10190000604AC22EC23D1237429000117400F0901E
:10191000616B120C909061AB120C7DD29C754B05E3
:10192000754CFF02199E300864D2D51258215022FE
:10193000754B05754CFF900002E0B435059066DFED
:10194000800D900000E07013A3E0700F9066BF124E
:101950000C90752F027530E80219CDE540B2E0F524
:1019600040701830342790616B120C909061AB126C
:101970000C7D9000117400F002198D90618B120C97
:10198000909061AB120C7D9000117401F0D2403048
:101990002C0CC22CE52DB4F005C23D0219CED54C5D
:1019A000EC754CFFD54BE6754B05120DFFE522C2D9
:1019B000E44521C2E760D6300803021926D083D05F
:1019C00082303D06C23DD083D0820201E322C23183
:1019D000755600853D2C853DA07800E52DF205115A
:1019E000102C0C120DFFE522549060F4022164E5E6
:1019F0002DA811F20511753A00753B00753600757A
:101A00003715752C0075A00078289061AB7A091203
:101A100007BC78409061C37A081207BC853D2C85CD
:101A20003DA07D04102C0C120DFFE522549060F4B3
:101A3000022164E52DA811F2051108DDE7853D833B
:101A4000758201E0B460004010B47E0A758203E044
:101A5000B40103123798022194C0E0752C0075A0E0
:101A600000F5F07902E3B43505D0E0022169E5F034
:101A7000780CF208A3E0F208A3E0F2853D837582BA
:101A800001D0E0124D4D752C0075A00078327A0619
:101A9000203C0512079980031207BC900017E0F55F
:101AA000F0A3E085F083F582E493701390621175E2
:101AB0002C0075A00078387A061207BC021AFFF5D0
:101AC00051A3E493A320E722FBE493FCA3E493F562
:101AD00082853D83E0F5F0A374F3C0E0741AC0E0A2
:101AE000C082C0838B838C82E473A3E493F58285E8
:101AF0003D83E090000FF0B5510050B0124E0F3012
:101B00002C031217D6203F031248EA120B76125DFF
:101B100068125D9FD2D3102C15303303021CF512CE
:101B20000E7CE52254906003022164021CA3C2D5FE
:101B3000E52D30E715B4F80050F1B4F002800B74D5
:101B4000F7D233D2D57540FFD23485102C8510A042
:101B5000A911F305110540B9FF3E0510E5108556A2
:101B6000F0B5830302215FB41104D2F0801DB415D7
:101B700004D2F18016B41904D2F2800FB41D04D23D
:101B8000F38008B42112D2F475100DD23085F056CE
:101B9000053BE53B7002053A30D50685104F8511AF
:101BA00050021CA312275DBCFF0302216E85362C58
:101BB0008536A0A937ECF309EDF3858336858237A6
:101BC000302C031217D6120804F5F0EDC2B520E050
:101BD00002D2B505F0C313F54985F04A908089E03B
:101BE000B54903021C41C0495015C3C5499549B4C4
:101BF0000600501DFA125D68DAFBD049021C4195BF
:101C000049B40600500BFA125D9FDAFBD049021C62
:101C100041D049125DDD752C8075A080E549790BB6
:101C2000F374187908F3209008302C031217D6802B
:101C3000F5752C8075A0807988E3545860030221E3
:101C400073752C8075A0807909E549F3790AE54A16
:101C5000F3853D837582008556F0E53DB41D07C2CE
:101C6000F4753D0D8023B41907C2F3753D1D80192D
:101C7000B41507C2F2753D19800FB41107C2F17592
:101C80003D158005753D11C2F075420285F056E59F
:101C9000F07002C230D228780B790874AED2A8F363
:101CA000121324209003021CCD752C8075A080791E
:101CB00088E330E409D542DD75410202217320B387
:101CC00006754101022178303103021FD6303022DF
:101CD000752C8075A0807988209004E330E0101284
:101CE0005F8EE5416009B40203D542A90221730267
:101CF0001BA4021B16203245021D85853A45853BF3
:101D000046753A00753B00851148751100851047EE
:101D1000E510B41D00400575100D8021B419004078
:101D20000575101D8017B415004005751019800D3C
:101D3000B4110040057510158003751011E43031A1
:101D400002D2E0C0E020300B20320ED0E0C2E0C072
:101D5000E08006D232C2318006D231C232C233753F
:101D60002C8075A0807988209004E330E00C125F0D
:101D70008EE5416005D0E0022173D0E020E003024F
:101D80001BA4021FD6C23385504E854F4D752C8043
:101D900075A0807988209004E330E00A125F8EE518
:101DA000416003022173203409302C031217D6023C
:101DB0001E8FC23385504E854F4D752C0075A00087
:101DC00078489000287A10120799302C06302C039E
:101DD0001217D6752C0075A00078589000387A102C
:101DE000120799202C03203409302C031217D60235
:101DF0001E8F7B01203F027B077E00203403021EE2
:101E000086120DFFE522549060030221643034EE07
:101E10007C0412132EDCFBDEE2DBDE900011E020FE
:101E2000E003021CFB752C0075A00078289061EB84
:101E30007A101207BC302C06302C031217D6752CE2
:101E40000075A0007A101207BC302C06302C03124B
:101E500017D6120B76752C0075A0007828900048D4
:101E60007A20120799302C06302C031217D6203412
:101E700003021E8F120DFF200F09E5225490600609
:101E8000022164021CFB302CE5302C031217D6E52E
:101E9000502406F582E54F3400F583B51009E5823C
:101EA000B511004013800AE54FB510028003021EF1
:101EB000DDE540B406004003021EDDC37406954014
:101EC000FB102C0C120DFFE522549060F4022164EB
:101ED0001217D6E52DB4F703021D85DBE430330677
:101EE000854E50854D4F854F83855082A3E0B47E4B
:101EF0000E854F10855011754000D234021DF275C9
:101F00002C0075A000F5F0780CE2B5F016703F08D3
:101F1000A3E2F5F0E0B5F01108A3E2F5F0E0B5F0CA
:101F20000C802BE5F0F208A3E0F208A3E0F2854F65
:101F300083855082A3E0124D4D752C0075A000786A
:101F4000327A06203C0512079980031207BC302C18
:101F5000031217D6900017E0F5F0A3E085F083F5A3
:101F600082E4936059F551A3E493A320E728FBE4AE
:101F700093FCA3E4932550F582854F83500205839B
:101F8000E0F5F0A374A5C0E0741FC0E0C082C08378
:101F90008B838C82E473A3E4932550F582854F8371
:101FA00050020583E0F5F090000FE0B5F003021F4A
:101FB000CEE5F0F0B551005005124E0F8010752C93
:101FC0000075A00078387A067420F208DAFC120B4B
:101FD00076D2D3021B16C231C23F755600C2A8C2C8
:101FE000D3753600753715755000754F00E547B449
:101FF0001D005020B419005017B41500500EB41134
:10200000005005C3940D800E9411800A941580062B
:1020100094198002941D6002F54FAC45AD467E00D8
:10202000C3ED33FDEC33FCC3ED33FDEC33FCE5488D
:102030002550F5505002054FEE2550FEE54F3DFD71
:102040005003E43CFC752C0075A0007912ECF309F8
:10205000EDF309EEF31249B61227E2752C0075A0D4
:10206000007902E304F3E54860080546E54670029E
:1020700005457901E3C39546F319E39545F3053426
:10208000203421853D2C853DA0A911E3B4F0122018
:10209000300CE53DB51007E5116009022137021A41
:1020A0003D02215F125DDDD2B57D007E0290010010
:1020B000125CB9D2B57D007E01902100125C3D75A5
:1020C0002C0075A0007900E309902180F0A3E3F0D3
:1020D000A37902E3F0A309E3F07D007E01902100E3
:1020E000125CB99005007D007E03125CB90E125C93
:1020F000B930343D752C0075A00078289061CB7AFA
:102100000A1207BC752C0075A00078409000047A74
:1021100008120799120B76752C0075A0007828908C
:1021200061AB7A091207BC78409061C37A08120744
:10213000BC30340302198D853D2C853DA0A911E3E7
:10214000B4F01CE511B406004003021A3DC375F05B
:1021500006C5F095F0FD853D2C853DA0021A249022
:1021600067BF801C9066FF80179066DF80129067C3
:102170009F800DE541B4010590665F800390675F25
:10218000752F027530E8C2A8C2D3120C90D2D512B6
:10219000587B800DC2A8C2D3753D0D75100D751109
:1021A00000C234C24022C2D51258215036900002DB
:1021B000E0602AC22E754000906217120C7D124E0C
:1021C00071753E01752F217530CD0222A330093F74
:1021D000C2D5125821500C900002E0700F90671F7A
:1021E000120C90752F027530E80222A3E540B2E090
:1021F000F540700F906217120C7D124E71753E0102
:102200000222A3906237120C90753E350222A33051
:102210000F711258054009752F217530A60222A3AF
:10222000906257120C7D1222AC753501E53EB43533
:102230000F753500753300303F061222E912130A7C
:10224000303F061222C012133A122309E533B53487
:10225000028017302E06203F11102E0E0533121368
:1022600044303F031222A4D53ED6E520B4FB03023E
:1022700022A3C2D512587B853540752F217530CDEC
:102280000221ECE53EB4011B30140CE533B53402F9
:1022900080110533024E71301709E533600515339F
:1022A000024E71227A0312130ADAFB22907F5074D5
:1022B000F0F0A3E4F0A3F0A3740EF0A37404F022F2
:1022C0007A00120780752C7F75A07F74027855F212
:1022D000087A081207997A0D120780E0F274F7085D
:1022E000F27A10907F500222F8907F557401F0A38B
:1022F00074F7F07A07907F502029FDE0A3F52ED2E5
:1023000029202A02D299DAF02275100D751101C226
:102310009CC22CC231C28CC2A9E589C2E0D2E1F5CF
:10232000897A0D120780E0B4FF030225EB30E10348
:102330000240BF7541007A0E120780E0F517A3E056
:10234000F516A3E0F5151515E515B4FF111516E5FD
:1023500016B4FF0A1517E517B4FF030225A7D2D359
:10236000124E717A11120780E0FCA3E0FD1225F2F3
:10237000858336858237120804F5F0EDC2B520E07A
:1023800002D2B505F0C313F549125DCBE549125DE4
:1023900033754202AF49AEF0900D00125C11E54179
:1023A0006006D542EF022417C29C203F527A0812E1
:1023B0000780E0B40F0CA3A3A3E0B40242122F22C3
:1023C000803AB4400CA3A3A3E0B40133122F4180A0
:1023D0002BB44216A3A3A3E0B403028008B4040202
:1023E0008003B4091A122F608012B44112A3A3A370
:1023F000E0B406028003B40B06122FDA023053D287
:10240000D3755464900D00E0F52ED229D299901125
:1024100000753D1102256E0225B220290520A90272
:10242000800C120EE1E5225490603C0225A21515A5
:10243000E515B4FF111516E516B4FF0A1517E517D3
:10244000B4FF030225A785102C8510A0A911E3F580
:102450002ED229202A02D2990511B9FF130510E5C1
:1024600010B4190675100D02253CB583030225BD75
:10247000E52E30E7F2B4F00280EDB4F71085543F5A
:10248000758C00758A00D28CD2A902253C0225CA1F
:102490007542021226092031811225F28583368584
:1024A00082371208FDF5F0EDC2B520E002D2B50585
:1024B000F0C313F54985F04A908089E0B5490302DD
:1024C00025038549F05016C3C5499549B406005007
:1024D0001FFA125D73DAFB85F0490225039549B4B2
:1024E0000600500CFA125DAADAFB85F049022503BA
:1024F00085F049125DFDE549125D41E354586003E2
:102500000225A7752C8075A0807909E549F3790A21
:10251000E54AF3853D83758200E53DB40D05753DC3
:1025200011800BB41105753D158003753D0DC22852
:10253000788B7908748CD2A8F312132420900302AC
:10254000256E754100752C8075A0807988E330E395
:102550000E1583158315831583D542D20225B53018
:10256000E406D542C90225BD20B3030225C52031AA
:1025700019E510B41500500DB411005004740D800D
:1025800006741180027415B53D0302241A752C805F
:1025900075A08079882090AAE330E00302241A0213
:1025A00024909066FF8030E5417007C2A8C2D30234
:1025B00025EBB404059067FF8013B4020590675FB4
:1025C000800BB4012690665F80039067DFD0E0D077
:1025D000E0752F027530E8D22EC2A8C2D3120C903B
:1025E000C2D512587B12130A12130AC2A9C28CD286
:1025F0009C22C3ED33F5F0EC33C5F0900500258245
:10260000F582E5F03583F58322853683853782E0D0
:10261000B48004D2318004FCA3E0FD22C3ED33F585
:10262000F0EC33C5F09077002582F582E5F0358334
:10263000F58322853883853982E0B48004D23180E5
:1026400004FCA3E0FD22752C0075A00078CCE2F814
:1026500074CCC398FBC2D5752C0075A000E2600352
:102660000226F808C2D5102C030226EBE52D30E730
:1026700005B4F8005075AA40BA80030226BB054095
:10268000BA0106B47E630226BBBA0310B40105D2B8
:10269000350226BBB40252C2350226BB203516BA1B
:1026A0007E19B4F744D54405D54302D233D23475EC
:1026B00040000226BBBA1503B4F72E85102C8510F6
:1026C000A0A911F30511B9FF220510E510B41102FC
:1026D000800BB415028006B4191175100DD23005A7
:1026E0003BE53B7006053A8002D2D520D504DB05D8
:1026F0007CFF02275C022657752C0075A000E87944
:10270000CCF3C39468C333FDE433FCED33FDEC3309
:10271000FCED33FDEC33FC75F000E210E72205F030
:1027200010E61D05F010E51805F010E41305F01093
:10273000E30E05F010E20905F010E10405F0C2E037
:10274000F2ED25F0FDEC3400FCC3ED33F582EC3303
:102750002405F5837480F0A3E4F0158222752C0023
:1027600075A00078CCE2F874CCC398FAE270140833
:10277000302C091217D6752C0075A000DAEE7CFFFC
:102780000227E1E879CCF3C39468C333FDE433FC5A
:10279000ED33FDEC33FCED33FDEC33FC75F000E282
:1027A00010E72205F010E61D05F010E51805F01001
:1027B000E41305F010E30E05F010E20905F010E156
:1027C0000405F0C2E0F2ED25F0FDEC3400FCC3EDB1
:1027D00033F582EC332405F5837480F0A3E4F0151F
:1027E000822275830175820D7A35E0B4FF1CC3E542
:1027F00082940DF58250021583752C0075A0007926
:1028000019E583F309E582F3800C74132582F582C0
:1028100050020583DAD42275560085104F85115079
:102820007D06D24030340E120DFFE521C2E745226D
:1028300060F2022EAB302C031217D6202C0C120D96
:10284000FFE522549060F4022EAB302C031217D611
:10285000DDE9854F83855082A3E0B4600040030228
:102860002ED7C0E0752C0075A000780CF208A3E00C
:10287000F208A3E0F2854F83855082A3D0E0124D89
:102880004D752C0075A00078327A061207BC9000B6
:1028900017E0F5F0A3E085F083F582E493701390E0
:1028A0006211752C0075A00078387A061207BC02F8
:1028B00028F2F551A3E493A320E722FBE493FCA3C1
:1028C000E493F582853D83E0F5F0A374E6C0E074FF
:1028D00028C0E0C082C0838B838C82E473A3E4931E
:1028E000F582853D83E090000FF0B5510050B012A5
:1028F0004E0F302C031217D61248EA120B76752CA5
:102900008075A0807989E3790BF379087418F3D284
:10291000D3102C15303303022AF0120E7CE522541A
:10292000906003022EAB022A9EC2D5E52D30E7153A
:10293000B4F80050F1B4F002800B74F7D233D2D562
:102940007540FFD23485102C8510A0A911F3051114
:102950000540B9FF3E0510E5108556F0B58303022A
:102960002EBFB41104D2F0801DB41504D2F180162C
:10297000B41904D2F2800FB41D04D2F38008B4213C
:1029800012D2F475100DD23085F056053BE53B7040
:1029900002053A30D50685104F851150022A9E1245
:1029A000275DBCFF03022EB085362C8536A0A937E3
:1029B000ECF309EDF3858336858237302C0312174B
:1029C000D6120804F5F0EDC2B520E002D2B505F04C
:1029D000C313F54985F04A908089E0B54903022A7E
:1029E0003CC0495015C3C5499549B40600501DFA6D
:1029F000125D68DAFBD049022A3C9549B4060050C2
:102A00000BFA125D9FDAFBD049022A3CD049125DD5
:102A1000DD752C8075A080E549790BF37418790871
:102A2000F3209008302C031217D680F5752C807592
:102A3000A0807988E354586003022EB5752C807508
:102A4000A0807909E549F3790AE54AF3853D837564
:102A500082008556F0E53DB41D07C2F4753D0D803A
:102A600023B41907C2F3753D1D8019B41507C2F2CE
:102A7000753D19800FB41107C2F1753D15800575BC
:102A80003D11C2F075420285F056E5F07002C23089
:102A9000D228780B790874AED2A8F31213242090B0
:102AA00003022AC8752C8075A0807988E330E40978
:102AB000D542DD754102022EB520B30675410102F3
:102AC0002EBA303103022D73303022752C8075A060
:102AD000807988209004E330E010125F8EE5416039
:102AE00009B40203D542A9022EB502299F02291179
:102AF000C233854F4D85504E752C8075A0807988E6
:102B0000209004E330E00A125F8EE5416003022E5C
:102B1000B5203A14D51C1D751C01D51B03022CE7EA
:102B20001236807B06022BD2D51C0985541C122E2E
:102B3000E0103DE9203403022BAB303E2420331C4F
:102B4000854F83C3E5509404F582B4FD004002151F
:102B500083E0B4F00CC23ED233022BFAC23E022B09
:102B6000EC752C0075A00078489000287A101207A8
:102B700099302C06302C031217D6752C0075A00046
:102B800078589000387A10120799302C09302C03AD
:102B90001217D6022BAB30340C120E7CE522549067
:102BA00060F4022EAB302C031217D6303E14C23E16
:102BB000E540B404004003022BE9C374049540FBD4
:102BC0008010E540B406004003022BE9C37406956B
:102BD00040FB202C0C120DFFE522549060F4022ED5
:102BE000AB302C031217D6DBE9303308854D8385D3
:102BF0004E828006854F83855082A3E0B47E0D858A
:102C00004F10855011754000D234808A752C0075A4
:102C1000A000F5F0780CE2B5F016703708A3E2F5E5
:102C2000F0E0B5F01108A3E2F5F0E0B5F00C802378
:102C3000E5F0F208A3E0F208A3E0F2854F838550A7
:102C400082A3E0124D4D752C0075A00078327A06F3
:102C50001207BC302C031217D6900017E0F5F0A332
:102C6000E085F083F582E4936065F551A3E493A3D6
:102C700020E734FBE493FCA3E493303309254EF5BD
:102C800082854D8380072550F582854F835002054C
:102C900083E0F5F0A374B6C0E0742CC0E0C082C03D
:102CA000838B838C82E473A3E4932550F582854F54
:102CB0008350020583E0F5F090000FE0B5F00302C9
:102CC0002CDFE5F0F0B551005005124E0F80107565
:102CD0002C0075A00078387A067420F208DAFC120D
:102CE0000B76D2D3022911853A45853B46753A00C9
:102CF000753B00851148751100851047E510B41D1E
:102D000000400575100D8021B41900400575101D97
:102D10008017B415004005751019800DB4110040DE
:102D2000057510158003751011E4303102D2E0C032
:102D3000E020300B203213D0E0C2E0C0E0800B2056
:102D4000E002C230D232C2318006D231C232C23346
:102D5000752C8075A0807988209004E330E00C12F7
:102D60005F8EE5416005D0E0022EB5D0E020E003A3
:102D700002299FC231755600C2A8C2D375360075AC
:102D80003715755000754F00E547B41D005020B44D
:102D900019005017B41500500EB411005005C3941B
:102DA0000D800E9411800A94158006941980029467
:102DB0001D6002F54FAC45AD467E00C3ED33FDEC22
:102DC00033FCC3ED33FDEC33FCE5482550F55050A2
:102DD00002054FEE2550FEE54F3DFD5003E43CFC5F
:102DE000752C0075A0007912ECF309EDF309EEF3F0
:102DF0007902E360061249B6022E107919E3F583D1
:102E000009E3F58279047A13E309F0A3DAFA0533CA
:102E10001227E2752C0075A0007902E304F3E5485F
:102E200060080546E546700205457901E3C395460D
:102E3000F319E39545F30534125DCBD2B57D007EE1
:102E400002900100125C8DD2B57D007E01902100C0
:102E5000125C11752C0075A0007900E309902180A7
:102E6000F0A3E3F0A37902E3F0A309E3F07D007E91
:102E700001902100125C8D9005007D007E03125CA4
:102E80008D0E125C8D752C0075A00078289061CB9A
:102E90007A0A1207BC752C0075A0007840900004D7
:102EA0007A08120799120B53022ED79066FF8012F0
:102EB00090679F800DE541B4010590665F800390A7
:102EC000675FC2A8C2D3120C9012587B752F02758F
:102ED00030E812130A8004C2A8C2D3C23AC2402208
:102EE000752C7F75A07F7940E309F52ED229202A21
:102EF000FDD2992029FDE309F52ED229B4F7F42259
:102F000006F00F020004F707F04000400002F70649
:102F1000F042300021F706F041430020F704F04171
:102F200053F7902F00E493FAA3752C7F75A07F7858
:102F3000001207BC900D03E07803F2D239751B0133
:102F400022902F07E493FAA3752C7F75A07F780059
:102F50001207BC900D02E07802F2D239751B0122F3
:102F6000C0E090000FF090000C7442F0902F0FE43E
:102F700093FAA3752C7F75A07F78001207BCD0E070
:102F80007903F3900D02E07802F2F518751900D27A
:102F900039751B01222029FD752EF0D229D29920E6
:102FA00029FD752E42D2292029FD85182ED22920EF
:102FB00029FD752C0075A000790FE3F52ED229208C
:102FC00029FD752E11D2292029FD85192E0519D22A
:102FD000292029FD752EF7D22922F54A751B01906B
:102FE0002F16B40B03023035752EF0D229D299205A
:102FF00029FD752E41D2292029FD752E50D2292078
:1030000029FD752EF7D229302CFDC22CE52DB4F008
:103010006F302CFDC22CE52DB44165302CFDC22C47
:10302000E52DB4515B302CFDC22CE52DB4F7517564
:103030001B02902F1DE493FAA3752C7F75A07F7857
:10304000001207BCE54AB40B07900D03E07803F2C9
:10305000D23922D23B851B1C75540AE589D2E0C2C5
:10306000E1F589D2D3900D00E0F52ED229D29990C6
:103070001100753D11755300755200D29C02323318
:10308000D083D08202326720290620A9120230CCD8
:10309000120EE1E5225490606C02326702327D30FC
:1030A000A9FAE553B5520280F6F9752C7775A07729
:1030B000E3F5F0752C7F75A07FE3B5F0DC0553B424
:1030C000F7DDC2A9C28C7553007552001515E515C0
:1030D000B4FF111516E516B4FF0A1517E517B4FF6E
:1030E0000302327285102C8510A0A911E3F52ED2AF
:1030F00029202A02D2990511B9FF130510E510B451
:10310000190675100D023201B5830302328DE52ECA
:1031100030E7F2B4F00280EDB4F734E517700BE558
:10312000167007E5157003023272D51C1F851B1C33
:10313000752C0075A000790CE3B44203122F95851D
:10314000543F758C00758A00D28CD2A90230870258
:1031500025CA754202122609303103023087122532
:10316000F28583368582371208FDF5F0EDC2B52071
:10317000E002D2B505F0C313F54985F04A90808985
:10318000E0B549030231C88549F05016C3C54995D9
:1031900049B40600501FFA125D73DAFB85F049024C
:1031A00031C89549B40600500CFA125DAADAFB85C5
:1031B000F0490231C885F049125DFDE549125D41D3
:1031C000E354586003023272752C8075A08079092F
:1031D000E549F3790AE54AF3853D83758200E53DCB
:1031E000B40D05753D11800BB41105753D158003B7
:1031F000753D0DC228788B7908748CD2A8F3121310
:1032000024209003023233754100752C8075A08014
:103210007988E330E30E1583158315831583D54232
:10322000D202328530E406D542C902328D20B30382
:10323000023295203119E510B41500500DB411007B
:103240005004740D8006741180027415B53D03029C
:103250003087752C8075A08079882090AAE330E0B3
:10326000030230870231529066FF8036D083D082CD
:103270008004E541700CC2A8C2D30232B390681F2B
:103280008016B404059067FF800EB4020590675F56
:103290008006B4011E90665FD0E0D0E0752F027505
:1032A00030E8D22EC2A8C2D3120C90C2D512587BDD
:1032B00012130AC2A9C28CC23B220547004241FF39
:1032C00064050547004341002005054700444100CF
:1032D0002005031511000315010103151000044218
:1032E0003001200442300C100442300610044230F9
:1032F000111C04423003104000044230041040000E
:10330000044230091040000506003061FF800505C9
:10331000060230640005060530640004100100FF59
:1033200078040241514D505838323032BA0250457B
:103330005136202032C2024D423736202032CA0296
:1033400046616465724D32D2005050533130303294
:10335000DA0045582D38303032DE004457383030EE
:103360003032F20244573630303032F9024456508F
:103370002D312033000250383030494932E30050BB
:103380004C5938303032E800504F4C592D3632ED20
:103390000050434D3730203307024C58502D312018
:1033A000330F004C58502D35203315004F422D3827
:1033B0002020331B0254522D3730373322004A4C21
:1033C000436F6F700233404F626572686D0133ACBA
:1033D000526F6C616E640133B5D2D5125821400929
:1033E000752F027530E8023580900002E0B4350692
:1033F0009066DF023403900000E07013A3E0700FCA
:103400009066BF120C90752F027530E802358075FA
:103410004000C22E9064D7120C7D90001EE0F5F0A3
:103420007418120CB1120B5374C8120C75752F342A
:10343000753036023580300B12D2D512582150A08B
:10344000E540B2E0F54060CC02347F300F06123622
:10345000E102358030140B90001EE004B4640D02CC
:1034600035803017FA90001EE060F414F0F5F07427
:1034700018120CB1120B5374C8120C7502358090DF
:1034800064F7120C7D90001FE0783E12358174C6FF
:10349000120C75752F3475309C023580300B0AD2B2
:1034A000D5125821409A0233E0200F030234FE90D7
:1034B0006517120C7D90001FE07831123581900065
:1034C00020E4F0752F3575302490001FE075F00969
:1034D000A42406500205F09033BE2582F582E5F063
:1034E0003583F583E493F551A3752C0075A000791D
:1034F00021E493F3F5F0A309E493F302354C30147F
:103500000B90001FE004B4030D023580301771905A
:10351000001FE0606B14F0783E12358174C6120C07
:1035200075023580300B0302347F300F061235A14F
:1035300002358030140B900020E004B5510D0235A7
:103540008030173C900020E0603614F0752C007538
:10355000A0007921E3F58309E3F5827920E375F092
:1035600009A42582F5827924F319E58335F0F583E2
:10357000F3783C7A061207BC120B5374C4120C7514
:103580002275F009A49033BE2582F582E5F03583DB
:10359000F583752C0075A0007A061207BC120B5338
:1035A00022900023E0F5F0A3E085F0832406F58265
:1035B00050020583E493F54FA3E493F550A3E493FD
:1035C000854F8385508270051235E08006B4020F66
:1035D00012361F12130A12130A752F337530D922AF
:1035E000C082C083123768D083D082E493A3FB7576
:1035F0002EF0D229D2992029FDE493A3F52ED229C9
:103600002029FDDBF4752EF7D229D23D12198D75D4
:1036100020EF74EF908004F090800C7401F022751C
:103620002C7F75A07F7900E493A3FBF51A74F0F367
:1036300009E493F3A309DBF974F7F3E493F51BA30F
:10364000E493F519751C011237429000117401F0D2
:1036500090618B120C909061AB120C7D7520FF7401
:10366000FF908004F090800CE4F01236801228174E
:103670007520EF74EF908004F090800C7401F022BC
:10368000752C7F75A07F7901E3B442317903E3B4EF
:1036900003028008B404028003B409212029FD75C7
:1036A0002EC0D229D2992029FD85192E0519D2299B
:1036B0007A3D12133ADAFB752C7F75A07FA919E3C6
:1036C00004F37901752EF0D229D2992029FDAA1A86
:1036D000E309F52ED2292029FDDAF5752EF7D22936
:1036E00022123768752EF0D229D2992029FD752E25
:1036F0007ED2292029FD752E7FD2292029FD752E05
:1037000003D2292029FD90001EE0F52ED229202980
:10371000FDE4F52ED2292029FD752EF7D229202986
:10372000FDD23D12198D12130A12130A7520EF747F
:10373000EF908004F090800C7401F0752F33753099
:10374000D9221249461207435326F0753A00753BB9
:1037500000753D0D75100D75110075360075371526
:10376000754000C22CD234221237429000117400EE
:10377000F090616B120C909061AB120C7D7520FF84
:1037800074FF908004F090800CE4F02253616D701F
:103790006C6544756D702020D2D3C23175360075CA
:1037A0003715753A00753B0085102C8510A0E51182
:1037B000B4150885104F8511508020102C0C120D67
:1037C000FFE522549060F4024085E52D30E705B412
:1037D000F80050DAA911F3051180D390378C752CBD
:1037E0000075A00078327A061207BC900011E090B4
:1037F000379230E00390620B752C0075A00078388A
:103800007A061207BC790C7481F3790FF3203F0319
:103810001248EA854F2C854FA0A95019B9FF04150D
:103820002C15A0E3B4F758E9940EF9B9F20040045E
:10383000152C15A0E3F5F0E92404F9B404005004B4
:10384000052C05A0E3FF09B90004052C05A0E3FE43
:1038500030E004EFD2E7FF8F1209B90004052C0510
:10386000A0E3FD30E004EED2E7FEC3ED13C313FD89
:10387000F514EE13FEF513BD0600400602407B0270
:1038800040A1E5F0B40F005004743C8010B4160061
:10389000500474288007B41D005071741E75F00028
:1038A000120B08BE0005BF0002800504700205F07F
:1038B00085F043F5447D00FEAFF0C3EF13FFEE1338
:1038C000FEED132415FDC3EF13FFEE13FEC3EF133C
:1038D000FFEE13FE900000E0B50F028005500D02D0
:1038E000407BA3E0B50E00500302407B0543120B62
:1038F00053C233D234754000D2D3102C1530330369
:10390000023C03120F4FE5225490600302408502EF
:103910003B94E52D30E705B4F80050F3AA40BA8097
:10392000030239610540BA0106B47E64023961BA06
:103930000310B40105D235023961B40253C2350215
:103940003961203516BA7E19B4F745D54405D543FB
:1039500002D233D234754000023961BA1503B4F78C
:103960002F85102C8510A0A911F30511B9FFA00512
:1039700010E510B41102800BB415028006B4198F43
:1039800075100DD230053BE53B7002053A023BB5A0
:1039900002408012264620D5F7BCFF030240768500
:1039A000362C8536A0A937ECF309EDF385833685EF
:1039B0008237C2D5102C03023A39E52D30E705B421
:1039C000F8005075AA40BA8003023A090540BA01CE
:1039D00006B47E63023A09BA0310B40105D2350277
:1039E0003A09B40252C235023A09203516BA7E1994
:1039F000B4F744D54405D54302D233D234754000E0
:103A0000023A09BA1503B4F72E85102C8510A0A927
:103A100011F30511B9FF220510E510B41102800B56
:103A2000B415028006B4191175100DD230053BE5AE
:103A30003B7006053A8002D2D530D5030240801291
:103A4000083BF5F0EDC2B520E002D2B505F0C31396
:103A500020D5E9F54985F04A908089E0B54903020F
:103A60003B5B8549F05019C3C5499549B4060050E0
:103A700025FB125D7E20D5C4DBF885F049023B5B57
:103A80009549B40600500FFB125DB520D5AEDBF8AA
:103A900085F049023B5B85F049125E2320D59D7578
:103AA0002C8075A080E549790BF374187908F33000
:103AB0009003023B4BC2D5102C03023B3CE52D305A
:103AC000E705B4F8005075AA40BA8003023B0C0524
:103AD00040BA0106B47E63023B0CBA0310B4010580
:103AE000D235023B0CB40252C235023B0C203516D3
:103AF000BA7E19B4F744D54405D54302D233D23443
:103B0000754000023B0CBA1503B4F72E85102C85C6
:103B100010A0A911F30511B9FF220510E510B41189
:103B200002800BB415028006B4191175100DD23045
:103B3000053BE53B7006053A8002D2D520D5093019
:103B4000B303023AAF024071024080752C8075A029
:103B5000807988E35458600302408A752C8075A0F0
:103B6000807909E549F3790AE54AF3853D83758251
:103B700000E53DB41505753D0D800BB41105753D8F
:103B8000158003753D11D228780B790874AED2A840
:103B9000F3121324209003023BBB752C8075A08088
:103BA0007988E330E40675410202408A20B3067545
:103BB0004101024071303103023E99303042E53D0F
:103BC000B4150274092404B5100280105010B41505
:103BD0000274092404B5100280044002C230752C1E
:103BE0008075A0807988209004E330E010125FB7E0
:103BF00030D503024080E541600302408A023993D8
:103C00000238FA752C0075A0007911E320E07320CA
:103C1000322E853A45853B46753A00753B00851145
:103C200048751100851047E510B415004005751062
:103C30000D800DB41100400575101580037510112D
:103C4000E4303102D2E0C0E030300B20E002C2307C
:103C5000D232C2318006D231C232C233752C807565
:103C6000A0807988209004E330E00C125FB7E54132
:103C70006005D0E002408AD0E020E00302399302E0
:103C80003E9975400085104F851150752C8075A0A8
:103C9000807988209004E330E00A125FB7E5416044
:103CA0000302408A203403023DC4752C0075A00035
:103CB00078489000287A1012079912430B10D550BB
:103CC000752C0075A00078589000387A101207996A
:103CD00012430B10D53A752C0075A000782890611E
:103CE000EB7A101207BC12430B10D5247A1012077E
:103CF000BC12430B10D519120BB3303413752C00C2
:103D000075A00078289000487A2012079920340383
:103D1000023DC4120DFF200F09E5225490600E02EF
:103D2000408590000F7491F0D231023C12C2D51040
:103D30002C03023DB4E52D30E705B4F8005075AA18
:103D400040BA8003023D840540BA0106B47E630296
:103D50003D84BA0310B40105D235023D84B4025249
:103D6000C235023D84203516BA7E19B4F744D544D5
:103D700005D54302D233D234754000023D84BA15D2
:103D800003B4F72E85102C8510A0A911F30511B9E5
:103D9000FF220510E510B41102800BB41502800655
:103DA000B4191175100DD230053BE53B7006053A8C
:103DB0008002D2D5E540B415004003023DCB023D60
:103DC00013024080E540B41500403E854F2C854FDE
:103DD000A0A95009B90004052C05A0E3B47E1C0974
:103DE00009B90104052C05A0E3B4010FE550241521
:103DF000F550E54F3400F54F023813854F108550CC
:103E000011754000D234023CD6C2D5102C03023EBC
:103E100090E52D30E705B4F8005075AA40BA80034C
:103E2000023E600540BA0106B47E63023E60BA03FA
:103E300010B40105D235023E60B40252C235023ED2
:103E400060203516BA7E19B4F744D54405D543022F
:103E5000D233D234754000023E60BA1503B4F72E57
:103E600085102C8510A0A911F30511B9FF220510AA
:103E7000E510B41102800BB415028006B419117557
:103E8000100DD230053BE53B7006053A8002D2D5D5
:103E900020D503023DC4024080C23FC231C2A8C245
:103EA000D3753600753715755000754F00E547B46A
:103EB0001500500EB411005005C3940D80069411E6
:103EC000800294156002F54FAC45AD467E00C3ED0F
:103ED00033FDEC33FCC3ED33FDEC33FCE5482550FA
:103EE000F5505002054FEE2550FEE54F3DFD5003C5
:103EF000E43CFC752C0075A0007912ECF309EDF39D
:103F000009EEF37911E3D2E1F31249B61227E27513
:103F10002C0075A0007902E304F3E548600805462B
:103F2000E546700205457901E3C39546F319E3952B
:103F300045F3053420341220300CE53DB51007E57B
:103F4000116006023FDA023813125E23D2B57D00FB
:103F50007E02900100125CE1D2B57D007E019015D9
:103F600000125C65752C0075A0007900E3099015BE
:103F700080F0A3E3F0A37902E3F0A309E3F07D006E
:103F80007E01901500125CE19005007D007E031219
:103F90005CE10E125CE1752C0075A0007828906140
:103FA000CB7A0A1207BC752C0075A00078409000EF
:103FB000047A08120799120BB3752C0075A00078CB
:103FC000289061AB7A091207BC78409061C37A08E7
:103FD0001207BCE51170030240A1B41500400302B2
:103FE0003813C2D5102C03024069E52D30E705B423
:103FF000F8005075AA40BA80030240390540BA0162
:1040000006B47E63024039BA0310B40105D235020A
:104010004039B40252C235024039203516BA7E19F1
:10402000B4F744D54405D54302D233D234754000A9
:10403000024039BA1503B4F72E85102C8510A0A9BB
:1040400011F30511B9FF220510E510B41102800B20
:10405000B415028006B4191175100DD230053BE578
:104060003B7006053A8002D2D520D514E540023FC8
:10407000DA90665F80179066BF801290679F800D10
:1040800090673F80089066FF800390675FC2A8C278
:10409000D3120C90D2D512587B752F027530E88060
:1040A00019C2A8C2D3753D0D75100D751100900091
:1040B00011E075400030E0020540D234C240227A5F
:1040C0000E120780E0F517A3E0F516A3E0F515152D
:1040D00015E515B4FF111516E516B4FF0A1517E519
:1040E00017B4FF030242E3D2D3124E717A111207C2
:1040F00080E0FCA3E0FD1225F2858336858237122D
:104100000804F5F0EDC2B520E002D2B505F0C31306
:10411000F549125DCBE549125D33AF49AEF0900D24
:1041200000125C11C29CD2D3900D00E0F52ED22972
:10413000D29975400090110075100D751101753DF3
:1041400011C28C0242A020290520A902800C121164
:1041500037E522549060790242D41515E515B4FF75
:10416000111516E516B4FF0A1517E517B4FF03027B
:10417000430285102C8510A0A911E3F52ED2290544
:10418000400511B9FF120510E510B4190575100DA1
:104190008006B583030242E3E52E30E733B4F0082E
:1041A000754000D29902427CB4F725753F4EE589EF
:1041B000C2E0D2E1F589E540B4140B753F20E589F2
:1041C000D2E0C2E1F589758C00758A00D28CD2A943
:1041D00002427C1226092031F71225F285833685AA
:1041E0008237120937F5F0EDC2B520E002D2B505ED
:1041F000F0C313F54985F04A908089E0B549030280
:1042000042438549F05016C3C5499549B40600504C
:104210001FFA125D89DAFB85F0490242439549B4E1
:104220000600500CFA125DC0DAFB85F049024243E9
:1042300085F049125ECDE549125D4FE354586003A5
:104240000242DE752C8075A0807909E549F3790A70
:10425000E54AF3853D83758200E53DB40D05753D66
:1042600011800BB41105753D158003753D0DC228F5
:10427000788B7908748CD2A8F3121324209003024F
:1042800042A0754100752C8075A0807988E330E4E8
:10429000067541020242DE20B3067541010242D991
:1042A000203119E510B41500500DB41100500474FC
:1042B0000D8006741180027415B53D0302414675E8
:1042C0002C8075A08079882090B8E330E00302410B
:1042D000460241D39066FF800D90665F800890672C
:1042E0005F800390673F752F027530E8D22EC2A819
:1042F000C2A9C2D3120C9012130A12130A12587BCD
:104300008006C2A8C2D3C2A9D29C22C2D53034032F
:1043100002439CC2D5102C0302439AE52D30E705D9
:10432000B4F8005075AA40BA800302436A0540BA47
:104330000106B47E6302436ABA0310B40105D235A4
:1043400002436AB40252C23502436A203516BA7E6D
:1043500019B4F744D54405D54302D233D23475405D
:104360000002436ABA1503B4F72E85102C8510A0FD
:10437000A911F30511B9FF220510E510B41102804F
:104380000BB415028006B4191175100DD230053B1F
:10439000E53B7006053A8002D2D5D2D522D083D033
:1043A00082E5F0B4012A7B0012484220331D7B09CC
:1043B0001248422033150583E5822409F582500214
:1043C0000583E0B421057405024465740102446567
:1043D000B4040F752C0075A0007911E330E00602DB
:1043E0004456024465E0B40127125BB6125B8612A4
:1043F00007439000197401F0A3E4F09000007403E7
:10440000F0A3741CF0A3E4F07533FF7534FF80440F
:10441000B40250A37B09124842752C0075A00078A5
:10442000047A08120799E07811E290493E78047AFC
:10443000051207CB501BE2C3943075F00AA4F5F0C7
:10444000E2C3943025F014F8752C7775A0777401C9
:10445000F21222ACD23F751100754000D0E0D0E0DE
:1044600002198D740622D083D0827900E5F0B4421F
:104470000302449909B4430302449909B444030272
:10448000449909E0B4400302449909B44103024449
:104490009909B4410302449909E922D083D082E505
:1044A000F0B404005003E48002740122D083D0826F
:1044B000E5F06058B404028053B40600504E203F2B
:1044C0004DB4024AA3E0B403028003B4213A7B0452
:1044D000124842758200E0F52ED229D2992029FD9A
:1044E000A3E0F52ED2292029FDA3E0F52ED2292024
:1044F00029FDA3E0F52ED2292029FD752E04D2290D
:104500002029FD752EF7D22974028002740622D06C
:1045100083D082E5F07900B4010302453A09B40B77
:104520000302453A09B40D0302453A09B4100302E7
:10453000453A09B4110302453A09E922D083D082F1
:10454000E5F06012B4020CE014B40200500524033C
:104550000245C70245C5E014B4010C303F030245D3
:10456000BB203A060245890245C07D02302CFD3051
:104570002C031217D6DDF5E52DB42F05D23D0245EB
:10458000BBB45F02D23D0245BBD0E0D0E074E6C0D0
:10459000E07428C0E0751C01755401D23A302C0338
:1045A0001217D6758200752C7F75A07F78407A0629
:1045B00012079974F7F278437440F274010245C708
:1045C000B403004002740522D083D082E5F0790064
:1045D000B415030245E509B419030245E509B464BD
:1045E000030245E509E922C0F0302C031217D6D0AA
:1045F000E0D083D082B41104E4024738B4140574C7
:1046000001024738B416057402024738B41805741D
:1046100003024738B428057404024738B42C0574E3
:1046200005024738B470057407024738B41D057495
:104630000C024738B42305740D024738B4023B30EE
:104640003F03024675203A2B752C7F75A07F78407A
:1046500074F0F2087441F2087453F20874F7F2D05F
:10466000E0D0E074E6C0E07428C0E0751C02755428
:1046700002D23AD23E7406024738203F3DB4F73AA0
:1046800015821582E582B4FE0040021583E0B45421
:104690000FD0E0D0E074F0C0E0742AC0E0024738E8
:1046A000B45514122EE0D0E0D0E074E7C0E0742CD2
:1046B000C0E0C23A024738024736E0B42405740825
:1046C000024738B421057409024738B42305740A37
:1046D000024738B42060203F5D15821582E582B420
:1046E000FE0040021583E0203A34B4404585108333
:1046F000758200752C7F75A07F78407A0512079926
:1047000074F7F278427443F2D0E0D0E074E6C0E08F
:104710007428C0E0D23A751C017554018014B44568
:1047200011122EE0D0E0D0E074E7C0E0742CC0E0BD
:10473000C23A740B8002740E22D083D082E5F0B4AA
:104740000A02E422740122D083D082E5F0B47E0311
:1047500002479A7003024841B403057402024841BB
:10476000B404057402024841B405057401024841CD
:10477000B406057401024841B40904E4024841B496
:1047800001057407024841B402057407024841B4A8
:104790000A05740A02484102483FA3A37B0A124853
:1047A00042E0B44C3BA3E0B44D36A3E0B42031A3C7
:1047B000E0B4202CA3E0B4382AA3E0B43922A3E06B
:1047C000F54BA3E0F54C7B067901904851E493A3A7
:1047D000B54B09E493B54C04E9024841A309DBED6C
:1047E00002483FB44D21A3E0B443F5A3E0B452F036
:1047F000A3E0B4540AA3E0B445E67402024841B40D
:10480000593D7401024841B44613A3E0B45330A3A8
:10481000E0B44B2BA3E0B4592674018024B44E1F9E
:10482000A3E0B4531AA3E0B44515A3E0B45110A318
:10483000E0B4310474098009B4200474088002745F
:104840000B22302CFD302C031217D6203302DBF262
:1048500022373337363230353335323639754A0000
:10486000AB340B900100752C0075A000C082C08392
:10487000E533B54A030248CF790C7A03E582240870
:10488000F58250020583E3F5F0E0B5F04209A3DAC2
:10489000F5790FD083D082C082C083E582240BF5E6
:1048A0008250020583E3F5F0E0B5F02379047A083D
:1048B000D083D082C082C083E5822400F58250027A
:1048C0000583E0A3F5F0E309B5F004DAF58015D02F
:1048D00083D082E5822413F58250020583054ADBEA
:1048E0008BD38005D083D082C322752C0075A000A5
:1048F000780490493E7A081207BC78FF08752C7737
:1049000075A077E26009302C031217D6B834ED7425
:1049100001752C7775A077F2E8752C0075A00078EA
:1049200003F20475F000B40A004007C3940A05F0CE
:1049300080F42430780AF218E5F02430F222464957
:104940004C4520585820752C7775A0777900E47A6B
:1049500035F309DAFCAB34BBFF04E40249B50B9034
:104960000100E5822400F58250020583C082C083E5
:10497000E0A3B44630E0A3B4492BE0A3B44C26E056
:10498000A3B44521E0A3B4201CE0A3C3943075F088
:104990000AA4F5F0E0C3943025F0752C7775A07764
:1049A00014F97401F3D083D082E5822413F5825088
:1049B000020583DBB722E534B4FF03024A8290008C
:1049C0000CE0B48109754EFF75F000024A13124DD8
:1049D0004D203C0C90000EE0248FF54EE4024A4D31
:1049E000E5822408F58250020583E493F54EC3E581
:1049F00082940250021583F582E493F5F0A3E493C8
:104A0000F58285F083E493F5F0E5822404F5825085
:104A1000020583752C0075A000780FE2B49105742F
:104A2000FF024A4DC5F06025C5F0B5F0004004E531
:104A3000F0801A75F008A42582F582E5F03583F53B
:104A400083E5822406F58250020583E493F54F75D1
:104A50004B00754C0085344D753300124B0A502BBA
:104A60008534337A11120780A3AB340B741325827B
:104A7000F885832C5002052C852CA07A131207A7E9
:104A8000DBF9753300900100024AF9853433124B8B
:104A90000A40180533024AF4854C33124B0A400889
:104AA000601D854C4B024AAB854C4DC3E54D954B83
:104AB000B40103024AC8C30413254BF54C80D990B6
:104AC000673F120C90024B098534337A111207802C
:104AD000A3C3E534954BFB85832C8583A0E5822415
:104AE00013F85004052C05A07A131207A7DBF985EB
:104AF0004B3305337A0012078085832C8583A0A869
:104B0000829000047A1312079922124D47203C0824
:104B100090000EE0248F800CE5822408F58250027C
:104B20000583E493B54E707A0B120780E0B49105CB
:104B300074FF024B77F5F0752C0075A0007817E232
:104B4000F58308E2F582E493603014B5F000500478
:104B5000E5F08023E5822404F58250020583740881
:104B6000A42582F582E5F03583F583E5822406F5F8
:104B70008250020583E493B54F1D7A0012078075B9
:104B80002C0075A00078047A08E0A3F5F0E208B5DF
:104B9000F008DAF5E480037401B322D2D51258216B
:104BA000500C900002E0701190671F120C90D22EF2
:104BB000752F4C753039024C39C22E752F4C75301B
:104BC0000090661F120C7D753500124D47752C0044
:104BD00075A000782F7A06203C05120799800312F1
:104BE00007BC7A0B120780E0124E0F7A0012078082
:104BF000752C0075A00078047A08120799024D2DD3
:104C0000300F1D752F4C75303AD22D7A0012078067
:104C1000752C0075A00078047A13120799024D4094
:104C200030140BE533B53402800F0533809930170B
:104C300008E53360041533808E22E53590000425A5
:104C400082F5821217365006124D2D024D40300C5F
:104C500005C22D024BB9200F03024CEF125805502C
:104C60000E12485D401490663F120C9012130AC257
:104C70002D752F4B75309B024D2C752C0075A000A7
:104C800078049000047A081207997A001207808548
:104C9000832C8583A0E5822413F95005052C05A0FB
:104CA000C3E5349533601975F013A4FAABF06001D5
:104CB0000BE3F0A309B90004052C05A0DAF3DBF13E
:104CC0008534337A0D12078074FFF015341249B61B
:104CD0000534125DCBD2B57F007E02900100125CDC
:104CE0008DE541702D752F4C753000C22D803E3002
:104CF000140FE535B407037535FF05357531FF80B1
:104D00003F301728E535700375350815357531FFC7
:104D1000802E90675FB4010390665F120C90126062
:104D20006712130A752F4B75309BC22D2290000419
:104D3000752C0075A000783F7A08120799020B5372
:104D4000E53524C7020C757A08120780E0D23C7062
:104D500022C082C083A3E0B48000501FA3E0B480CF
:104D6000005018D083D082B432005016906C1FD2FD
:104D7000D58052C2D5906869024DC5D083D08202D9
:104D800000EB752C7F75A07F78307B03E0F5F0C4D5
:104D9000540FB40A004004243780022430F208E59E
:104DA000F0540FB40A004004243780022430F20883
:104DB000A3DBD9900017746EF0A37409F0907F30D4
:104DC000C23C024E0E14F53C20E73675F00AA425CD
:104DD00082F58250020583E58325F0F583C082C009
:104DE00083E5822406F58250020583752C0075A0A8
:104DF000007817E493F2A308E493F2D083D0828082
:104E00000D900017746EF0A37409F090685F22B4DF
:104E10008106903792024E63B4910690620B024E67
:104E200063C0E0752C0075A0007817E2F58308E2F6
:104E3000F582E493F54BD0E0B54B0040069062114B
:104E4000024E63C0E0E5822404F58250020583D05F
:104E5000E075F008A42582F58250020583E58325DC
:104E6000F0F583752C0075A00078387A061207BC1F
:104E700022124D47752C0075A00078327A06203C2E
:104E80000512079980031207BC7A0B120780E01203
:104E90004E0F7A00120780783F7A08120799020BAA
:104EA00053227A0E120780E0F5F0A3E0FDA3E0FEA6
:104EB000EDC3C5F013C5F013C3C5F013C5F013ACB3
:104EC000F0FDEE60050DBD00010C7404120D2922E9
:104ED000752F4E7530F7D2D51258215033900002FD
:104EE000E06024C22E754000906277120C7D124E55
:104EF000A2124E710250C3300D41D2D5125821502A
:104F00000F900002E0701412606790671F120C90FF
:104F1000D22E752F507530C30250C3E540B2E0F574
:104F200040700F906277120C7D124EA2124E7102E9
:104F300050C3906297120C900250C3300F0F9062D2
:104F4000B7120C90752F4F7530730250C3E5407047
:104F500008301410E533B534030250C30533124E44
:104F6000A2024E713017F2E53360EE1533124EA2F5
:104F7000024E71300FE312580540030250BD90629B
:104F8000D7120C90E5406024900002E4F0A3F0906A
:104F900000007403F0A3741CF0125B2BE541600366
:104FA0000250947533FF7534FF02509A7A1112073C
:104FB000807B007A00E020E712FCE4F0A3E0FDE44F
:104FC000F00ABA00010B1225F280EAE4F08A4F8B56
:104FD00050D2B5125DCB7F007E01900D00125C11A6
:104FE000E5416003025094752C0D75A00D798290F7
:104FF0000002E014F0F319900001E0254FF0F319DE
:105000001582E03550F0F37A0012078085832C85F5
:1050100083A0E5822413F95005052C05A0C3E534CF
:105020009533601975F013A4FAABF060010BE3F04F
:10503000A309B90004052C05A0DAF3DBF1C0338520
:1050400034337A0D12078074FFF0D0331534E53411
:10505000B4FF028007E533B5340040038534337F65
:10506000007E01900D00125C8DE54170277F007E6F
:1050700002900100125C8DE54170197F007E039063
:105080000500125C8DE541700B7F007E04125C8D83
:10509000E54160061257DC0250C31227E2120743B3
:1050A000900002E0700E90671F120C90752F027531
:1050B00030E8800F9062F7120C9012130A752F4E91
:1050C0007530D022C2D5125821503BC23190000217
:1050D000E0602DC22EC233754000752F507530E947
:1050E000906317120C7D024E7120150302517DC290
:1050F000D5D23D125823500EC231900002E07011FB
:1051000090671F120C90D22E752F5775305D025785
:105110005DE540B402037540FF0540E5406006B41C
:105120000119025130C233906317120C7D024E7187
:10513000D233906337120C9002575DD2339063578D
:10514000120C9002575D906377120C90752F517579
:10515000305502575D300FFA906397120C90752FFF
:105160005175306702575D300FE8753E35D23F12FA
:105170002220C23F102E03025748025740200F033F
:105180000252719063D7120C7D303326E540B40192
:10519000B5753300755500D2D3900001E0F5F0C32A
:1051A000741C95F0FD1582E0F5F0740395F0FC0297
:1051B00051D77A0E120780D2D3E0FCA3E0FDC3ECF6
:1051C00013FCED13FDC3EC13FCED13FDBF000280D7
:1051D000062401FD50010C8C3A8D3B74191207DC3A
:1051E0008DF0C2D3600205F085F03E752C7775A076
:1051F0007778009005007B087A00120799DBF97A2E
:1052000000120780752C7F75A07F78007A13120733
:1052100099303324752C2175A02178009001007BF2
:10522000047A00120799DBF9900000752C7F75A0B5
:105230007F78707A03120799125DCBD2B57F007E1A
:1052400001907300125C11752C7375A0737884E261
:105250007535016003753500126067853EF0740195
:10526000120CB1120B53752F52753090D238025771
:105270005D2033FA30140DE533B5340302575D0574
:1052800033024E713017E7E53360E31533024E7198
:10529000300F0C9063F7120C90752F527530A202EC
:1052A000575D300FFAD2D5303302C034125821D2B4
:1052B00038303302D03450E7125DCB30334B1260BC
:1052C000679063B7120C90752F527530D002575DFE
:1052D000200F0302575D752C0175A0017800902105
:1052E000007B087A00120799DBF9907F70752C001B
:1052F00075A00078007A03120799125B86120743A3
:105300007533007555000253D2752C0075A00079D5
:1053100002E3FBB43500500E900000E0B53A0AA35A
:10532000E0B53B00500802541E500302541E752C79
:105330007F75A07FC0338B3315337A0812078079CD
:1053400008E3F5F0E0B5F037700F09A37A02E3F552
:10535000F0E0B5F02A09A3DAF57A0B120780790B91
:10536000E3F5F0E0B5F01879007A001207807A08CA
:10537000E0A3F5F0E309B5F006DAF5D0338007DBFA
:10538000B7D0330253A91B8B499064B7120C9075A8
:105390002F5375309802575D300FFAC033C03485F3
:1053A0004933124FACD034D033907F00752C007548
:1053B000A00078047A131207991249B6900002E00F
:1053C00004F00534900001E0C3953BF01582E095B0
:1053D0003AF075360075371575387F753911125DDD
:1053E000CBD2B57F007E01907300125C11752C73D7
:1053F00075A0737884E535F27F007E01907300120A
:105400005C8D126067906457120C7D853EF0E4124B
:105410000CB1120B53752F5475302702575D9067EE
:105420009F120C90025106300FF112577140D39029
:105430006477120C9012575E126067125D5D125B0A
:10544000E1D2D3754B19E53A700AE53BB419005027
:1054500003853B4B900D00C082C083907F11E0FC20
:10546000A3E0FD803D300FB312577150030256A3E5
:10547000906477120C9012575E126067125D5D1295
:105480005BE1900D00754B19E53A700AE53BB419E4
:10549000005003853B4BD2D3C082C08312263320F9
:1054A0003165051112261C8583388582391208045E
:1054B000F5F0EDC2B520E002D2B505F0C313F54911
:1054C00085F04A12579A754202AF49AE4AD083D04E
:1054D00082125C11E5416011C082C083B40203D521
:1054E00042E7D083D08202571FD54BAA30335A856A
:1054F0003883853982E0B48050752C7F75A07FA8F1
:10550000117401F202551AD083D08230333BE53456
:10551000B53303025549C082C08305337A001207B0
:1055200080752C7F75A07FA8117401F278007A1322
:1055300012079975387F75391130310DC231907F5E
:1055400011E0FCA3E0FD0254A2126067C2D3906494
:1055500017120C7D853EF0E4120CB1120B53752F1F
:105560005575306A02575D02571F300FF712577199
:1055700050D7906437120C90126067125D5D125B19
:10558000E1900D00754B19751170C082C083D2D3A4
:1055900012275D85362C8536A0A937ECF309EDF38B
:1055A000858336858237120804F5F0EDC2B520E018
:1055B00002D2B505F0C313F54985F04AE54BB4199D
:1055C00012900025E549F0A3E54AF0A3E430B502C6
:1055D000D2E0F012579A754202AF49AE4AD083D05A
:1055E00082125C8DE5416011C082C083B40203D594
:1055F00042E7D083D08202571F752C7F75A07FA809
:1056000011E2602AC082C0837A11C03385553312FB
:105610000780D033752C0075A0007915E3F009A33D
:10562000E3F00555753600753715D083D082051126
:10563000153BE53B7006E53A60108005B4FF0215A6
:105640003AD54B0302564A02558AC2D31227E2E5E5
:105650004B7005754B198007C3741A954BF54B9029
:105660000025E0F549A3E0F54AA3E0C2B56002D207
:10567000B5900D00C082C08312579AD083D082AFFC
:1056800049AE4A125C11E5417035054AE54AB40657
:105690000A754A01B2B530B5020549D54BD6D53E9B
:1056A00002801F126067906457120C7D853EF0E403
:1056B000120CB1120B53752F5475306502575D02F1
:1056C000571FD2B5125D94125DCB7F007E01900D05
:1056D00000125C11E5417047900000752C0D75A01B
:1056E0000D78807A031207997F007E01900D0012D9
:1056F0005C8DE54170297A11120780752C0075A028
:10570000007915E3F009A3E3F07E029001007A032B
:105710007F00125C8DE54170060EDAF4025748B442
:10572000010890665F1260678013D238B4040812D3
:10573000587B9067FF800612587B90675F120C9031
:10574000752F027530E8801512587B906497120C03
:105750009012130A12130A752F507530C422752C3B
:105760007F75A07F7870E47A19F208DAFC75116F02
:1057700022126067125DCB125D5D125D94D2B57F1F
:10578000007E01907300125C11752C7375A0737804
:1057900084E2B53503D38001C322908089E0B54906
:1057A0000280388549F05016C3C5499549B40500B3
:1057B000501EFA125D5DDAFB85F0490257DB954910
:1057C000B40500500BFA125D94DAFB85F049800BAA
:1057D00085F049125DCBE549125D3322E541B40401
:1057E0000912587B9067FF0257FBB40108126067EB
:1057F00090665F800612587B90675F120C90752F41
:10580000027530E822752C8075A080125DCB74582B
:105810007908F37988E330E7FCD320B303C3D238A7
:1058200022C23D752C8075A080125DCB745879081A
:10583000F37988E330E7FC30B31220380F302F03C0
:105840000258CE203603025918025903C23890611B
:105850004B120C907540027A42103D0375400112C4
:10586000134420B316DAF8125D94752F027530E8F0
:1058700090665F120C90D238025915126067C22FE1
:10588000125DCBC236752C8075A0807988E330E636
:1058900002D2367A03D2B5125D5D125D947F007E2E
:1058A00001900D00125C11E541600FDAEA90677F0C
:1058B000120C90D238D22F02590F752C0D75A00DF5
:1058C00078009060727A801207CB400AD22F9066DF
:1058D0007F120C908039752C0D75A00D788090008A
:1058E000007A03E2F008A3DAFA70037533FF14F5C7
:1058F00034B533005002F533E2F01215E91227E215
:1059000012074330361230D50F90669F120C90125A
:105910005D5D125D94C38001D312606722752C8097
:1059200075A080125DCB74587908F37988E330E76D
:10593000FC30B309203806203631025993C238C2F0
:105940003690614B120C907A4212134420B30EDA57
:10595000F8125D9490665F120C9002598E752C803F
:1059600075A0807988E330E60AD23690669F120CE3
:1059700090801BD2B5125D5D125D947F007E019018
:105980000D00125C11E541600AD238025993C3D26E
:10599000388007125D5D125D94D32212591D4003B9
:1059A000025B2112606790659F120C90752F5975EC
:1059B00030B2300F229062B7120C90752F597530AB
:1059C000C4025B2A300F10D23812591D4003025B0B
:1059D00021752F597530DA025B2AC238125D1A7FA1
:1059E0004F7E00D2B5900D007D01744E7A3C125D61
:1059F0001574007A0C125D1574F57A03125D157436
:105A0000FEF0A3EFF0A3EEF0A3EDF0A37403F0A378
:105A100074F7F0A3744E7A16125D1574007A0C12A6
:105A20005D1574F57A03125D1574FBF0A374E57BC4
:105A3000047AFF125D15F0A3DBF774F7F0A3744E40
:105A40007A18125D15ED2403B4060040029405FD9A
:105A5000B4019E744E7B047AFF125D15DBF9744F1E
:105A6000125D339065BF120C7DEFF5F0741A120CC5
:105A7000B1120DFFE5225490600C9066FF120C905D
:105A800012587B025B13D2D3900D00D228780B758D
:105A90002C8075A080790874FEF3D2A8798812133F
:105AA00024125F6BC2A8C2D3E5417051EEB2E0FE92
:105AB000B2B530E017900D4D7D05EEF0E58224542F
:105AC000F582E5833404F583DDF080A51FBFFF0276
:105AD000801E900D4C7D05EFF0A3EEF0E58224537F
